{
  "address": "0xe12D1A5e77E669E9a953d2C4947B6c8E28629f28",
  "abi": [
    {
      "inputs": [],
      "stateMutability": "nonpayable",
      "type": "constructor"
    },
    {
      "anonymous": false,
      "inputs": [
        {
          "indexed": true,
          "internalType": "uint256",
          "name": "streamId",
          "type": "uint256"
        },
        {
          "indexed": true,
          "internalType": "address",
          "name": "sender",
          "type": "address"
        },
        {
          "indexed": true,
          "internalType": "address",
          "name": "recipient",
          "type": "address"
        },
        {
          "indexed": false,
          "internalType": "uint256",
          "name": "senderBalance",
          "type": "uint256"
        },
        {
          "indexed": false,
          "internalType": "uint256",
          "name": "recipientBalance",
          "type": "uint256"
        }
      ],
      "name": "CancelStream",
      "type": "event"
    },
    {
      "anonymous": false,
      "inputs": [
        {
          "indexed": true,
          "internalType": "uint256",
          "name": "streamId",
          "type": "uint256"
        },
        {
          "indexed": true,
          "internalType": "address",
          "name": "sender",
          "type": "address"
        },
        {
          "indexed": true,
          "internalType": "address",
          "name": "recipient",
          "type": "address"
        },
        {
          "indexed": false,
          "internalType": "uint256",
          "name": "deposit",
          "type": "uint256"
        },
        {
          "indexed": false,
          "internalType": "address",
          "name": "tokenAddress",
          "type": "address"
        },
        {
          "indexed": false,
          "internalType": "uint256",
          "name": "startTime",
          "type": "uint256"
        },
        {
          "indexed": false,
          "internalType": "uint256",
          "name": "stopTime",
          "type": "uint256"
        }
      ],
      "name": "CreateStream",
      "type": "event"
    },
    {
      "anonymous": false,
      "inputs": [
        {
          "indexed": true,
          "internalType": "uint256",
          "name": "streamId",
          "type": "uint256"
        },
        {
          "indexed": true,
          "internalType": "address",
          "name": "recipient",
          "type": "address"
        },
        {
          "indexed": false,
          "internalType": "uint256",
          "name": "amount",
          "type": "uint256"
        }
      ],
      "name": "WithdrawFromStream",
      "type": "event"
    },
    {
      "inputs": [
        {
          "internalType": "uint256",
          "name": "streamId",
          "type": "uint256"
        },
        {
          "internalType": "address",
          "name": "who",
          "type": "address"
        }
      ],
      "name": "balanceOf",
      "outputs": [
        {
          "internalType": "uint256",
          "name": "balance",
          "type": "uint256"
        }
      ],
      "stateMutability": "view",
      "type": "function"
    },
    {
      "inputs": [
        {
          "internalType": "uint256",
          "name": "streamId",
          "type": "uint256"
        }
      ],
      "name": "cancelStream",
      "outputs": [
        {
          "internalType": "bool",
          "name": "",
          "type": "bool"
        }
      ],
      "stateMutability": "nonpayable",
      "type": "function"
    },
    {
      "inputs": [
        {
          "internalType": "address",
          "name": "recipient",
          "type": "address"
        },
        {
          "internalType": "uint256",
          "name": "deposit",
          "type": "uint256"
        },
        {
          "internalType": "address",
          "name": "tokenAddress",
          "type": "address"
        },
        {
          "internalType": "uint256",
          "name": "startTime",
          "type": "uint256"
        },
        {
          "internalType": "uint256",
          "name": "stopTime",
          "type": "uint256"
        }
      ],
      "name": "createStream",
      "outputs": [
        {
          "internalType": "uint256",
          "name": "",
          "type": "uint256"
        }
      ],
      "stateMutability": "nonpayable",
      "type": "function"
    },
    {
      "inputs": [
        {
          "internalType": "uint256",
          "name": "streamId",
          "type": "uint256"
        }
      ],
      "name": "deltaOf",
      "outputs": [
        {
          "internalType": "uint256",
          "name": "delta",
          "type": "uint256"
        }
      ],
      "stateMutability": "view",
      "type": "function"
    },
    {
      "inputs": [
        {
          "internalType": "uint256",
          "name": "streamId",
          "type": "uint256"
        }
      ],
      "name": "getStream",
      "outputs": [
        {
          "internalType": "address",
          "name": "sender",
          "type": "address"
        },
        {
          "internalType": "address",
          "name": "recipient",
          "type": "address"
        },
        {
          "internalType": "uint256",
          "name": "deposit",
          "type": "uint256"
        },
        {
          "internalType": "address",
          "name": "tokenAddress",
          "type": "address"
        },
        {
          "internalType": "uint256",
          "name": "startTime",
          "type": "uint256"
        },
        {
          "internalType": "uint256",
          "name": "stopTime",
          "type": "uint256"
        },
        {
          "internalType": "uint256",
          "name": "remainingBalance",
          "type": "uint256"
        },
        {
          "internalType": "uint256",
          "name": "ratePerSecond",
          "type": "uint256"
        }
      ],
      "stateMutability": "view",
      "type": "function"
    },
    {
      "inputs": [],
      "name": "nextStreamId",
      "outputs": [
        {
          "internalType": "uint256",
          "name": "",
          "type": "uint256"
        }
      ],
      "stateMutability": "view",
      "type": "function"
    },
    {
      "inputs": [
        {
          "internalType": "uint256",
          "name": "streamId",
          "type": "uint256"
        },
        {
          "internalType": "uint256",
          "name": "amount",
          "type": "uint256"
        }
      ],
      "name": "withdrawFromStream",
      "outputs": [
        {
          "internalType": "bool",
          "name": "",
          "type": "bool"
        }
      ],
      "stateMutability": "nonpayable",
      "type": "function"
    }
  ],
  "transactionHash": "0xa7509fc0f23f514ab7a5daeed05aedc9718df7ee47917fd22935cdcbc02ef604",
  "args": [],
  "solcInputHash": "dac1f65b9561c30dccf5a248d739a5dd",
  "bytecode": "0x608060405234801561001057600080fd5b5060016000819055620186a090556119598061002d6000396000f3fe608060405234801561001057600080fd5b506004361061007d5760003560e01c80637a9b2c6c1161005b5780637a9b2c6c146100f9578063894e9a0d1461011c578063a82ccd4d1461019b578063cc1b4bf6146101b85761007d565b80631e99d569146100825780633656eec21461009c5780636db9241b146100c8575b600080fd5b61008a6101f8565b60408051918252519081900360200190f35b61008a600480360360408110156100b257600080fd5b50803590602001356001600160a01b03166101fe565b6100e5600480360360208110156100de57600080fd5b50356104e3565b604080519115158252519081900360200190f35b6100e56004803603604081101561010f57600080fd5b50803590602001356107f1565b6101396004803603602081101561013257600080fd5b5035610b8f565b60405180896001600160a01b03168152602001886001600160a01b03168152602001878152602001866001600160a01b031681526020018581526020018481526020018381526020018281526020019850505050505050505060405180910390f35b61008a600480360360208110156101b157600080fd5b5035610c63565b61008a600480360360a08110156101ce57600080fd5b506001600160a01b0381358116916020810135916040820135169060608101359060800135610d9f565b60015481565b6000828152600260205260408120600701548390600160a01b900460ff16610265576040805162461bcd60e51b81526020600482015260156024820152741cdd1c99585b48191bd95cc81b9bdd08195e1a5cdd605a1b604482015290519081900360640190fd5b61026d61175e565b50600084815260026020818152604092839020835161012081018552815481526001820154928101929092529182015492810192909252600381015460608301526004810154608083015260058101546001600160a01b0390811660a08401526006820154811660c084015260079091015490811660e0830152600160a01b900460ff1615156101008201526103016117c7565b600061030c87610c63565b905061031c818460200151611321565b602084018190528382600381111561033057fe5b600381111561033b57fe5b905250600090508251600381111561034f57fe5b1461038b5760405162461bcd60e51b81526004018080602001828103825260238152602001806118a06023913960400191505060405180910390fd5b604083015183511115610430576103aa83600001518460400151611363565b60408401819052838260038111156103be57fe5b60038111156103c957fe5b90525060009050825160038111156103dd57fe5b146103e457fe5b6103f682602001518360400151611363565b602084018190528382600381111561040a57fe5b600381111561041557fe5b905250600090508251600381111561042957fe5b1461043057fe5b8260a001516001600160a01b0316866001600160a01b0316141561045c57506020015192506104dc9050565b8260c001516001600160a01b0316866001600160a01b031614156104d45761048c83604001518360200151611363565b60608401819052838260038111156104a057fe5b60038111156104ab57fe5b90525060009050825160038111156104bf57fe5b146104c657fe5b506060015192506104dc9050565b600094505050505b5092915050565b60006002600054141561053d576040805162461bcd60e51b815260206004820152601f60248201527f5265656e7472616e637947756172643a207265656e7472616e742063616c6c00604482015290519081900360640190fd5b6002600081815583815260209190915260409020600701548290600160a01b900460ff166105aa576040805162461bcd60e51b81526020600482015260156024820152741cdd1c99585b48191bd95cc81b9bdd08195e1a5cdd605a1b604482015290519081900360640190fd5b60008381526002602052604090206006015483906001600160a01b03163314806105ed57506000818152600260205260409020600501546001600160a01b031633145b6106285760405162461bcd60e51b81526004018080602001828103825260378152602001806118c36037913960400191505060405180910390fd5b61063061175e565b506000848152600260208181526040808420815161012081018352815481526001820154938101939093529283015490820152600382015460608201526004820154608082015260058201546001600160a01b0390811660a08301526006830154811660c0830181905260079093015490811660e0830152600160a01b900460ff16151561010082015291906106c79087906101fe565b905060006106d9878460a001516101fe565b60008881526002602081905260408220828155600181018390559081018290556003810182905560048101919091556005810180546001600160a01b0319908116909155600682018054909116905560070180546001600160a81b031916905560e084015190915081156107615760a0840151610761906001600160a01b0383169084611386565b82156107815760c0840151610781906001600160a01b0383169085611386565b8360a001516001600160a01b03168460c001516001600160a01b0316897fca3e6079b726e7728802a0537949e2d1c7762304fa641fb06eb56daf2ba8c6b98686604051808381526020018281526020019250505060405180910390a4600196505050505050506001600055919050565b60006002600054141561084b576040805162461bcd60e51b815260206004820152601f60248201527f5265656e7472616e637947756172643a207265656e7472616e742063616c6c00604482015290519081900360640190fd5b6002600081815584815260209190915260409020600701548390600160a01b900460ff166108b8576040805162461bcd60e51b81526020600482015260156024820152741cdd1c99585b48191bd95cc81b9bdd08195e1a5cdd605a1b604482015290519081900360640190fd5b60008481526002602052604090206006015484906001600160a01b03163314806108fb57506000818152600260205260409020600501546001600160a01b031633145b6109365760405162461bcd60e51b81526004018080602001828103825260378152602001806118c36037913960400191505060405180910390fd5b6000841161097c576040805162461bcd60e51b815260206004820152600e60248201526d616d6f756e74206973207a65726f60901b604482015290519081900360640190fd5b61098461175e565b506000858152600260208181526040808420815161012081018352815481526001820154938101939093529283015490820152600382015460608201526004820154608082015260058201546001600160a01b0390811660a083018190526006840154821660c084015260079093015490811660e0830152600160a01b900460ff1615156101008201529190610a1b9088906101fe565b905085811015610a5c5760405162461bcd60e51b81526004018080602001828103825260248152602001806118136024913960400191505060405180910390fd5b6000610a6c836040015188611363565b60008a815260026020819052604082200191909155909150816003811115610a9057fe5b14610a9757fe5b60008881526002602081905260409091200154610b0f5760008881526002602081905260408220828155600181018390559081018290556003810182905560048101919091556005810180546001600160a01b0319908116909155600682018054909116905560070180546001600160a81b03191690555b610b358360a00151888560e001516001600160a01b03166113869092919063ffffffff16565b8260a001516001600160a01b0316887f36c3ab437e6a424ed25dc4bfdeb62706aa06558660fab2dab229d2555adaf89c896040518082815260200191505060405180910390a3600195505050505050600160005592915050565b600080600080600080600080886002600082815260200190815260200160002060070160149054906101000a900460ff16610c09576040805162461bcd60e51b81526020600482015260156024820152741cdd1c99585b48191bd95cc81b9bdd08195e1a5cdd605a1b604482015290519081900360640190fd5b505050600096875250506002602081905260409095206006810154600582015482546007840154600385015460048601549a8601546001909601546001600160a01b039586169c9486169b939a5094909116975095509350565b6000818152600260205260408120600701548290600160a01b900460ff16610cca576040805162461bcd60e51b81526020600482015260156024820152741cdd1c99585b48191bd95cc81b9bdd08195e1a5cdd605a1b604482015290519081900360640190fd5b610cd261175e565b506000838152600260208181526040928390208351610120810185528154815260018201549281019290925291820154928101929092526003810154606083018190526004820154608084015260058201546001600160a01b0390811660a08501526006830154811660c085015260079092015491821660e0840152600160a01b90910460ff1615156101008301524211610d71576000925050610d99565b8060800151421015610d8a576060015142039150610d99565b80606001518160800151039250505b50919050565b60006001600160a01b038616610dfc576040805162461bcd60e51b815260206004820152601a60248201527f73747265616d20746f20746865207a65726f2061646472657373000000000000604482015290519081900360640190fd5b6001600160a01b038616301415610e5a576040805162461bcd60e51b815260206004820152601d60248201527f73747265616d20746f2074686520636f6e747261637420697473656c66000000604482015290519081900360640190fd5b6001600160a01b038616331415610eaf576040805162461bcd60e51b815260206004820152601460248201527339ba3932b0b6903a37903a34329031b0b63632b960611b604482015290519081900360640190fd5b60008511610ef6576040805162461bcd60e51b815260206004820152600f60248201526e6465706f736974206973207a65726f60881b604482015290519081900360640190fd5b42831015610f355760405162461bcd60e51b815260040180806020018281038252602181526020018061185d6021913960400191505060405180910390fd5b828211610f89576040805162461bcd60e51b815260206004820152601f60248201527f73746f702074696d65206265666f7265207468652073746172742074696d6500604482015290519081900360640190fd5b610f916117f0565b610f9b8385611363565b6020830181905282826003811115610faf57fe5b6003811115610fba57fe5b9052506000905081516003811115610fce57fe5b14610fd557fe5b806020015186101561102e576040805162461bcd60e51b815260206004820152601f60248201527f6465706f73697420736d616c6c6572207468616e2074696d652064656c746100604482015290519081900360640190fd5b8060200151868161103b57fe5b06156110785760405162461bcd60e51b815260040180806020018281038252602281526020018061187e6022913960400191505060405180910390fd5b6110868682602001516113dd565b604083018190528282600381111561109a57fe5b60038111156110a557fe5b90525060009050815160038111156110b957fe5b146110c057fe5b6000600154905060405180610120016040528088815260200183604001518152602001888152602001868152602001858152602001896001600160a01b03168152602001336001600160a01b03168152602001876001600160a01b031681526020016001151581525060026000838152602001908152602001600020600082015181600001556020820151816001015560408201518160020155606082015181600301556080820151816004015560a08201518160050160006101000a8154816001600160a01b0302191690836001600160a01b0316021790555060c08201518160060160006101000a8154816001600160a01b0302191690836001600160a01b0316021790555060e08201518160070160006101000a8154816001600160a01b0302191690836001600160a01b031602179055506101008201518160070160146101000a81548160ff0219169083151502179055509050506112266001546001611408565b60018190558382600381111561123857fe5b600381111561124357fe5b905250600090508251600381111561125757fe5b146112a9576040805162461bcd60e51b815260206004820181905260248201527f6e6578742073747265616d2069642063616c63756c6174696f6e206572726f72604482015290519081900360640190fd5b6112be6001600160a01b03871633308a61142e565b604080518881526001600160a01b038881166020830152818301889052606082018790529151918a1691339184917f7b01d409597969366dc268d7f957a990d1ca3d3449baf8fb45db67351aecfe789181900360800190a4979650505050505050565b600080836113345750600090508061135c565b8383028385828161134157fe5b04146113555760026000925092505061135c565b6000925090505b9250929050565b60008083831161137a57506000905081830361135c565b5060039050600061135c565b604080516001600160a01b038416602482015260448082018490528251808303909101815260649091019091526020810180516001600160e01b031663a9059cbb60e01b1790526113d890849061148e565b505050565b600080826113f1575060019050600061135c565b60008385816113fc57fe5b04915091509250929050565b6000808383018481106114205760009250905061135c565b60026000925092505061135c565b604080516001600160a01b0380861660248301528416604482015260648082018490528251808303909101815260849091019091526020810180516001600160e01b03166323b872dd60e01b17905261148890859061148e565b50505050565b60606114e3826040518060400160405280602081526020017f5361666545524332303a206c6f772d6c6576656c2063616c6c206661696c6564815250856001600160a01b031661153f9092919063ffffffff16565b8051909150156113d85780806020019051602081101561150257600080fd5b50516113d85760405162461bcd60e51b815260040180806020018281038252602a8152602001806118fa602a913960400191505060405180910390fd5b606061154e8484600085611558565b90505b9392505050565b6060824710156115995760405162461bcd60e51b81526004018080602001828103825260268152602001806118376026913960400191505060405180910390fd5b6115a2856116b4565b6115f3576040805162461bcd60e51b815260206004820152601d60248201527f416464726573733a2063616c6c20746f206e6f6e2d636f6e7472616374000000604482015290519081900360640190fd5b60006060866001600160a01b031685876040518082805190602001908083835b602083106116325780518252601f199092019160209182019101611613565b6001836020036101000a03801982511681845116808217855250505050505090500191505060006040518083038185875af1925050503d8060008114611694576040519150601f19603f3d011682016040523d82523d6000602084013e611699565b606091505b50915091506116a98282866116ba565b979650505050505050565b3b151590565b606083156116c9575081611551565b8251156116d95782518084602001fd5b8160405162461bcd60e51b81526004018080602001828103825283818151815260200191508051906020019080838360005b8381101561172357818101518382015260200161170b565b50505050905090810190601f1680156117505780820380516001836020036101000a031916815260200191505b509250505060405180910390fd5b604051806101200160405280600081526020016000815260200160008152602001600081526020016000815260200160006001600160a01b0316815260200160006001600160a01b0316815260200160006001600160a01b031681526020016000151581525090565b604080516080810190915280600081526020016000815260200160008152602001600081525090565b604080516060810190915280600081526020016000815260200160008152509056fe616d6f756e7420657863656564732074686520617661696c61626c652062616c616e6365416464726573733a20696e73756666696369656e742062616c616e636520666f722063616c6c73746172742074696d65206265666f726520626c6f636b2e74696d657374616d706465706f736974206e6f74206d756c7469706c65206f662074696d652064656c7461726563697069656e742062616c616e63652063616c63756c6174696f6e206572726f7263616c6c6572206973206e6f74207468652073656e646572206f722074686520726563697069656e74206f66207468652073747265616d5361666545524332303a204552433230206f7065726174696f6e20646964206e6f742073756363656564a26469706673582212201343cdf1d2ba4c12d191fff60c6bea5ddf55e8bab4d795726e820a63741f316964736f6c634300060c0033",
  "devdoc": {
    "author": "Sablier",
    "kind": "dev",
    "methods": {
      "cancelStream(uint256)": {
        "details": "Throws if the id does not point to a valid stream.  Throws if the caller is not the sender or the recipient of the stream.  Throws if there is a token transfer failure.",
        "params": {
          "streamId": "The id of the stream to cancel."
        },
        "returns": {
          "_0": "bool true=success, otherwise false."
        }
      },
      "createStream(address,uint256,address,uint256,uint256)": {
        "details": "Throws if the recipient is the zero address, the contract itself or the caller.  Throws if the deposit is 0.  Throws if the start time is before `block.timestamp`.  Throws if the stop time is before the start time.  Throws if the duration calculation has a math error.  Throws if the deposit is smaller than the duration.  Throws if the deposit is not a multiple of the duration.  Throws if the rate calculation has a math error.  Throws if the next stream id calculation has a math error.  Throws if the contract is not allowed to transfer enough tokens.  Throws if there is a token transfer failure.",
        "params": {
          "deposit": "The amount of money to be streamed.",
          "recipient": "The address towards which the money is streamed.",
          "startTime": "The unix timestamp for when the stream starts.",
          "stopTime": "The unix timestamp for when the stream stops.",
          "tokenAddress": "The ERC20 token to use as streaming currency."
        },
        "returns": {
          "_0": "The uint256 id of the newly created stream."
        }
      },
      "withdrawFromStream(uint256,uint256)": {
        "details": "Throws if the id does not point to a valid stream.  Throws if the caller is not the sender or the recipient of the stream.  Throws if the amount exceeds the available balance.  Throws if there is a token transfer failure.",
        "params": {
          "amount": "The amount of tokens to withdraw.",
          "streamId": "The id of the stream to withdraw tokens from."
        }
      }
    },
    "title": "Sablier",
    "version": 1
  },
  "userdoc": {
    "events": {
      "CancelStream(uint256,address,address,uint256,uint256)": {
        "notice": "Emits when a stream is successfully cancelled and tokens are transferred back on a pro rata basis."
      },
      "CreateStream(uint256,address,address,uint256,address,uint256,uint256)": {
        "notice": "Emits when a stream is successfully created."
      },
      "WithdrawFromStream(uint256,address,uint256)": {
        "notice": "Emits when the recipient of a stream withdraws a portion or all their pro rata share of the stream."
      }
    },
    "kind": "user",
    "methods": {
      "cancelStream(uint256)": {
        "notice": "Cancels the stream and transfers the tokens back on a pro rata basis."
      },
      "createStream(address,uint256,address,uint256,uint256)": {
        "notice": "Creates a new stream funded by `msg.sender` and paid towards `recipient`."
      },
      "nextStreamId()": {
        "notice": "Counter for new stream ids."
      },
      "withdrawFromStream(uint256,uint256)": {
        "notice": "Withdraws from the contract to the recipient's account."
      }
    },
    "notice": "Money streaming.",
    "version": 1
  },
  "storageLayout": {
    "storage": [
      {
        "astId": 1588,
        "contract": "contracts/Sablier/Sablier.sol:Sablier",
        "label": "_status",
        "offset": 0,
        "slot": "0",
        "type": "t_uint256"
      },
      {
        "astId": 2250,
        "contract": "contracts/Sablier/Sablier.sol:Sablier",
        "label": "nextStreamId",
        "offset": 0,
        "slot": "1",
        "type": "t_uint256"
      },
      {
        "astId": 2254,
        "contract": "contracts/Sablier/Sablier.sol:Sablier",
        "label": "streams",
        "offset": 0,
        "slot": "2",
        "type": "t_mapping(t_uint256,t_struct(Stream)3010_storage)"
      }
    ],
    "types": {
      "t_address": {
        "encoding": "inplace",
        "label": "address",
        "numberOfBytes": "20"
      },
      "t_bool": {
        "encoding": "inplace",
        "label": "bool",
        "numberOfBytes": "1"
      },
      "t_mapping(t_uint256,t_struct(Stream)3010_storage)": {
        "encoding": "mapping",
        "key": "t_uint256",
        "label": "mapping(uint256 => struct Types.Stream)",
        "numberOfBytes": "32",
        "value": "t_struct(Stream)3010_storage"
      },
      "t_struct(Stream)3010_storage": {
        "encoding": "inplace",
        "label": "struct Types.Stream",
        "members": [
          {
            "astId": 2993,
            "contract": "contracts/Sablier/Sablier.sol:Sablier",
            "label": "deposit",
            "offset": 0,
            "slot": "0",
            "type": "t_uint256"
          },
          {
            "astId": 2995,
            "contract": "contracts/Sablier/Sablier.sol:Sablier",
            "label": "ratePerSecond",
            "offset": 0,
            "slot": "1",
            "type": "t_uint256"
          },
          {
            "astId": 2997,
            "contract": "contracts/Sablier/Sablier.sol:Sablier",
            "label": "remainingBalance",
            "offset": 0,
            "slot": "2",
            "type": "t_uint256"
          },
          {
            "astId": 2999,
            "contract": "contracts/Sablier/Sablier.sol:Sablier",
            "label": "startTime",
            "offset": 0,
            "slot": "3",
            "type": "t_uint256"
          },
          {
            "astId": 3001,
            "contract": "contracts/Sablier/Sablier.sol:Sablier",
            "label": "stopTime",
            "offset": 0,
            "slot": "4",
            "type": "t_uint256"
          },
          {
            "astId": 3003,
            "contract": "contracts/Sablier/Sablier.sol:Sablier",
            "label": "recipient",
            "offset": 0,
            "slot": "5",
            "type": "t_address"
          },
          {
            "astId": 3005,
            "contract": "contracts/Sablier/Sablier.sol:Sablier",
            "label": "sender",
            "offset": 0,
            "slot": "6",
            "type": "t_address"
          },
          {
            "astId": 3007,
            "contract": "contracts/Sablier/Sablier.sol:Sablier",
            "label": "tokenAddress",
            "offset": 0,
            "slot": "7",
            "type": "t_address"
          },
          {
            "astId": 3009,
            "contract": "contracts/Sablier/Sablier.sol:Sablier",
            "label": "isEntity",
            "offset": 20,
            "slot": "7",
            "type": "t_bool"
          }
        ],
        "numberOfBytes": "256"
      },
      "t_uint256": {
        "encoding": "inplace",
        "label": "uint256",
        "numberOfBytes": "32"
      }
    }
  }
}