{
  "address": "0xc7fb5Ce5BC239a3Cd9b4343802B146838294bBDE",
  "abi": [
    {
      "inputs": [
        {
          "internalType": "address",
          "name": "_domain",
          "type": "address"
        },
        {
          "internalType": "address",
          "name": "_bar",
          "type": "address"
        },
        {
          "internalType": "address payable",
          "name": "_router",
          "type": "address"
        }
      ],
      "stateMutability": "nonpayable",
      "type": "constructor"
    },
    {
      "anonymous": false,
      "inputs": [
        {
          "indexed": true,
          "internalType": "bytes32",
          "name": "txHash",
          "type": "bytes32"
        },
        {
          "indexed": true,
          "internalType": "address",
          "name": "target",
          "type": "address"
        },
        {
          "indexed": false,
          "internalType": "uint256",
          "name": "value",
          "type": "uint256"
        },
        {
          "indexed": false,
          "internalType": "string",
          "name": "signature",
          "type": "string"
        },
        {
          "indexed": false,
          "internalType": "bytes",
          "name": "data",
          "type": "bytes"
        }
      ],
      "name": "CallTarget",
      "type": "event"
    },
    {
      "anonymous": false,
      "inputs": [
        {
          "indexed": true,
          "internalType": "address",
          "name": "previousOwner",
          "type": "address"
        },
        {
          "indexed": true,
          "internalType": "address",
          "name": "newOwner",
          "type": "address"
        }
      ],
      "name": "OwnershipTransferred",
      "type": "event"
    },
    {
      "anonymous": false,
      "inputs": [
        {
          "indexed": false,
          "internalType": "address",
          "name": "",
          "type": "address"
        },
        {
          "indexed": false,
          "internalType": "uint256",
          "name": "",
          "type": "uint256"
        }
      ],
      "name": "Received",
      "type": "event"
    },
    {
      "inputs": [],
      "name": "bar",
      "outputs": [
        {
          "internalType": "address",
          "name": "",
          "type": "address"
        }
      ],
      "stateMutability": "view",
      "type": "function"
    },
    {
      "inputs": [
        {
          "internalType": "address",
          "name": "target",
          "type": "address"
        },
        {
          "internalType": "uint256",
          "name": "value",
          "type": "uint256"
        },
        {
          "internalType": "string",
          "name": "signature",
          "type": "string"
        },
        {
          "internalType": "bytes",
          "name": "data",
          "type": "bytes"
        }
      ],
      "name": "callTarget",
      "outputs": [
        {
          "internalType": "bytes",
          "name": "",
          "type": "bytes"
        }
      ],
      "stateMutability": "payable",
      "type": "function"
    },
    {
      "inputs": [],
      "name": "convert",
      "outputs": [],
      "stateMutability": "nonpayable",
      "type": "function"
    },
    {
      "inputs": [],
      "name": "domain",
      "outputs": [
        {
          "internalType": "contract IERC20",
          "name": "",
          "type": "address"
        }
      ],
      "stateMutability": "view",
      "type": "function"
    },
    {
      "inputs": [],
      "name": "owner",
      "outputs": [
        {
          "internalType": "address",
          "name": "",
          "type": "address"
        }
      ],
      "stateMutability": "view",
      "type": "function"
    },
    {
      "inputs": [],
      "name": "renounceOwnership",
      "outputs": [],
      "stateMutability": "nonpayable",
      "type": "function"
    },
    {
      "inputs": [],
      "name": "router",
      "outputs": [
        {
          "internalType": "contract UniswapV2Router02",
          "name": "",
          "type": "address"
        }
      ],
      "stateMutability": "view",
      "type": "function"
    },
    {
      "inputs": [
        {
          "internalType": "address",
          "name": "newOwner",
          "type": "address"
        }
      ],
      "name": "transferOwnership",
      "outputs": [],
      "stateMutability": "nonpayable",
      "type": "function"
    },
    {
      "stateMutability": "payable",
      "type": "receive"
    }
  ],
  "transactionHash": "0xdb3d53128b7de4893293b9dcadd93759cfd4deeba8d4c98609e4e748fd3aeb9e",
  "args": [
    "0xE854905B3166417Ad5ecce90D64378C4B1c1a15E",
    "0x8EE123e1FC1C01EE306113CCac9BC5F151fB47a6",
    "0x72a1A3F85e775dbd82D737830190aCB338fd6D71"
  ],
  "solcInputHash": "149ee0177fca4003df7fc6d9add92284",
  "bytecode": "0x608060405234801561001057600080fd5b50604051610d65380380610d658339818101604052606081101561003357600080fd5b5080516020820151604090920151909190600061004e6100da565b600080546001600160a01b0319166001600160a01b0383169081178255604051929350917f8be0079c531659141344cd1fd0a4f28419497f9722a3daafe3b4186f6b6457e0908290a350600180546001600160a01b039485166001600160a01b0319918216179091556002805493851693821693909317909255600380549190931691161790556100de565b3390565b610c78806100ed6000396000f3fe60806040526004361061007f5760003560e01c8063d83bf9b81161004e578063d83bf9b814610137578063f2fde38b146102ee578063f887ea4014610321578063febb0f7e14610336576100c0565b8063715018a6146100c55780638da5cb5b146100dc57806391bbdcc71461010d578063c2fb26a614610122576100c0565b366100c0576040805133815234602082015281517f88a5966d370b9919b20f3e2c13ff65706f196a4e32cc2c12bf57088f88525874929181900390910190a1005b600080fd5b3480156100d157600080fd5b506100da61034b565b005b3480156100e857600080fd5b506100f1610409565b604080516001600160a01b039092168252519081900360200190f35b34801561011957600080fd5b506100da610418565b34801561012e57600080fd5b506100f161067d565b6102796004803603608081101561014d57600080fd5b6001600160a01b038235169160208101359181019060608101604082013564010000000081111561017d57600080fd5b82018360208201111561018f57600080fd5b803590602001918460018302840111640100000000831117156101b157600080fd5b91908080601f016020809104026020016040519081016040528093929190818152602001838380828437600092019190915250929594936020810193503591505064010000000081111561020457600080fd5b82018360208201111561021657600080fd5b8035906020019184600183028401116401000000008311171561023857600080fd5b91908080601f01602080910402602001604051908101604052809392919081815260200183838082843760009201919091525092955061068c945050505050565b6040805160208082528351818301528351919283929083019185019080838360005b838110156102b357818101518382015260200161029b565b50505050905090810190601f1680156102e05780820380516001836020036101000a031916815260200191505b509250505060405180910390f35b3480156102fa57600080fd5b506100da6004803603602081101561031157600080fd5b50356001600160a01b0316610aab565b34801561032d57600080fd5b506100f1610bbf565b34801561034257600080fd5b506100f1610bce565b610353610bdd565b6001600160a01b0316610364610409565b6001600160a01b0316146103bf576040805162461bcd60e51b815260206004820181905260248201527f4f776e61626c653a2063616c6c6572206973206e6f7420746865206f776e6572604482015290519081900360640190fd5b600080546040516001600160a01b03909116907f8be0079c531659141344cd1fd0a4f28419497f9722a3daafe3b4186f6b6457e0908390a3600080546001600160a01b0319169055565b6000546001600160a01b031690565b60408051600280825260608083018452600193909291906020830190803683375050600354604080516315ab88c960e31b815290519394506001600160a01b039091169263ad5c464892506004808301926020929190829003018186803b15801561048257600080fd5b505afa158015610496573d6000803e3d6000fd5b505050506040513d60208110156104ac57600080fd5b5051815182906000906104bb57fe5b6001600160a01b03928316602091820292909201015260018054835192169183919081106104e557fe5b6001600160a01b03928316602091820292909201810191909152600254600354604051637ff36ab560e01b8152600481018781529285166044820181905260001960648301819052608060248401908152885160848501528851929791969490911694637ff36ab59447948b948b948b948b949093919260a490920191878201910280838360005b8381101561058557818101518382015260200161056d565b50505050905001955050505050506000604051808303818588803b1580156105ac57600080fd5b505af11580156105c0573d6000803e3d6000fd5b50505050506040513d6000823e601f3d908101601f1916820160405260208110156105ea57600080fd5b810190808051604051939291908464010000000082111561060a57600080fd5b90830190602082018581111561061f57600080fd5b825186602082028301116401000000008211171561063c57600080fd5b82525081516020918201928201910280838360005b83811015610669578181015183820152602001610651565b505050509050016040525050505050505050565b6001546001600160a01b031681565b6060610696610bdd565b6001600160a01b03166106a7610409565b6001600160a01b031614610702576040805162461bcd60e51b815260206004820181905260248201527f4f776e61626c653a2063616c6c6572206973206e6f7420746865206f776e6572604482015290519081900360640190fd5b60008585858560405160200180856001600160a01b031681526020018481526020018060200180602001838103835285818151815260200191508051906020019080838360005b83811015610761578181015183820152602001610749565b50505050905090810190601f16801561078e5780820380516001836020036101000a031916815260200191505b50838103825284518152845160209182019186019080838360005b838110156107c15781810151838201526020016107a9565b50505050905090810190601f1680156107ee5780820380516001836020036101000a031916815260200191505b50965050505050505060405160208183030381529060405280519060200120905060608451600014156108225750826108a5565b84805190602001208460405160200180836001600160e01b031916815260040182805190602001908083835b6020831061086d5780518252601f19909201916020918201910161084e565b6001836020036101000a0380198251168184511680821785525050505050509050019250505060405160208183030381529060405290505b60006060886001600160a01b031688846040518082805190602001908083835b602083106108e45780518252601f1990920191602091820191016108c5565b6001836020036101000a03801982511681845116808217855250505050505090500191505060006040518083038185875af1925050503d8060008114610946576040519150601f19603f3d011682016040523d82523d6000602084013e61094b565b606091505b50915091508161098c5760405162461bcd60e51b815260040180806020018281038252603b815260200180610c08603b913960400191505060405180910390fd5b886001600160a01b0316847fc103124491698f7cedb08d90ce962a4c4d4fe76df0373f4a80ab971c37d77e1b8a8a8a604051808481526020018060200180602001838103835285818151815260200191508051906020019080838360005b83811015610a025781810151838201526020016109ea565b50505050905090810190601f168015610a2f5780820380516001836020036101000a031916815260200191505b50838103825284518152845160209182019186019080838360005b83811015610a62578181015183820152602001610a4a565b50505050905090810190601f168015610a8f5780820380516001836020036101000a031916815260200191505b509550505050505060405180910390a398975050505050505050565b610ab3610bdd565b6001600160a01b0316610ac4610409565b6001600160a01b031614610b1f576040805162461bcd60e51b815260206004820181905260248201527f4f776e61626c653a2063616c6c6572206973206e6f7420746865206f776e6572604482015290519081900360640190fd5b6001600160a01b038116610b645760405162461bcd60e51b8152600401808060200182810382526026815260200180610be26026913960400191505060405180910390fd5b600080546040516001600160a01b03808516939216917f8be0079c531659141344cd1fd0a4f28419497f9722a3daafe3b4186f6b6457e091a3600080546001600160a01b0319166001600160a01b0392909216919091179055565b6003546001600160a01b031681565b6002546001600160a01b031681565b339056fe4f776e61626c653a206e6577206f776e657220697320746865207a65726f2061646472657373454e5342434852656365697665723a3a63616c6c5461726765743a205472616e73616374696f6e20657865637574696f6e2072657665727465642ea264697066735822122048a6c80d80c7f12577f85723dbd577f0e9020c82655289eb9cffb01cd1276a3264736f6c634300060c0033",
  "devdoc": {
    "kind": "dev",
    "methods": {
      "owner()": {
        "details": "Returns the address of the current owner."
      },
      "renounceOwnership()": {
        "details": "Leaves the contract without owner. It will not be possible to call `onlyOwner` functions anymore. Can only be called by the current owner. NOTE: Renouncing ownership will leave the contract without an owner, thereby removing any functionality that is only available to the owner."
      },
      "transferOwnership(address)": {
        "details": "Transfers ownership of the contract to a new account (`newOwner`). Can only be called by the current owner."
      }
    },
    "version": 1
  },
  "userdoc": {
    "kind": "user",
    "methods": {},
    "version": 1
  },
  "storageLayout": {
    "storage": [
      {
        "astId": 7,
        "contract": "contracts/ENSBCHReceiver.sol:ENSBCHReceiver",
        "label": "_owner",
        "offset": 0,
        "slot": "0",
        "type": "t_address"
      },
      {
        "astId": 1234,
        "contract": "contracts/ENSBCHReceiver.sol:ENSBCHReceiver",
        "label": "domain",
        "offset": 0,
        "slot": "1",
        "type": "t_contract(IERC20)1045"
      },
      {
        "astId": 1236,
        "contract": "contracts/ENSBCHReceiver.sol:ENSBCHReceiver",
        "label": "bar",
        "offset": 0,
        "slot": "2",
        "type": "t_address"
      },
      {
        "astId": 1238,
        "contract": "contracts/ENSBCHReceiver.sol:ENSBCHReceiver",
        "label": "router",
        "offset": 0,
        "slot": "3",
        "type": "t_contract(UniswapV2Router02)5673"
      }
    ],
    "types": {
      "t_address": {
        "encoding": "inplace",
        "label": "address",
        "numberOfBytes": "20"
      },
      "t_contract(IERC20)1045": {
        "encoding": "inplace",
        "label": "contract IERC20",
        "numberOfBytes": "20"
      },
      "t_contract(UniswapV2Router02)5673": {
        "encoding": "inplace",
        "label": "contract UniswapV2Router02",
        "numberOfBytes": "20"
      }
    }
  }
}