{
  "address": "0x09d364c1075d406f32CF1efCDdf7a7a6081C6ecd",
  "abi": [
    {
      "inputs": [
        {
          "internalType": "address",
          "name": "_sablier",
          "type": "address"
        }
      ],
      "stateMutability": "nonpayable",
      "type": "constructor"
    },
    {
      "anonymous": false,
      "inputs": [
        {
          "indexed": true,
          "internalType": "address",
          "name": "previousOwner",
          "type": "address"
        },
        {
          "indexed": true,
          "internalType": "address",
          "name": "newOwner",
          "type": "address"
        }
      ],
      "name": "OwnershipTransferred",
      "type": "event"
    },
    {
      "inputs": [
        {
          "internalType": "address",
          "name": "recipient",
          "type": "address"
        },
        {
          "internalType": "address",
          "name": "_token",
          "type": "address"
        },
        {
          "internalType": "uint256",
          "name": "amount",
          "type": "uint256"
        },
        {
          "internalType": "uint256",
          "name": "timelength",
          "type": "uint256"
        }
      ],
      "name": "createStream",
      "outputs": [
        {
          "internalType": "uint256",
          "name": "",
          "type": "uint256"
        }
      ],
      "stateMutability": "nonpayable",
      "type": "function"
    },
    {
      "inputs": [],
      "name": "owner",
      "outputs": [
        {
          "internalType": "address",
          "name": "",
          "type": "address"
        }
      ],
      "stateMutability": "view",
      "type": "function"
    },
    {
      "inputs": [],
      "name": "renounceOwnership",
      "outputs": [],
      "stateMutability": "nonpayable",
      "type": "function"
    },
    {
      "inputs": [],
      "name": "sablier",
      "outputs": [
        {
          "internalType": "contract ISablier",
          "name": "",
          "type": "address"
        }
      ],
      "stateMutability": "view",
      "type": "function"
    },
    {
      "inputs": [
        {
          "internalType": "address",
          "name": "newOwner",
          "type": "address"
        }
      ],
      "name": "transferOwnership",
      "outputs": [],
      "stateMutability": "nonpayable",
      "type": "function"
    }
  ],
  "transactionHash": "0xce9287592a02aafb62e84c18285507bcb2c7afe9dece33cacccfee8b4b915569",
  "args": [
    "0xeE85373F26E5380Fbd71FB7295BD68fdd0818887"
  ],
  "solcInputHash": "0b016160d50f871fe8b5a3da0947cb06",
  "bytecode": "0x608060405234801561001057600080fd5b506040516105b73803806105b78339818101604052602081101561003357600080fd5b5051600061003f6100ae565b600080546001600160a01b0319166001600160a01b0383169081178255604051929350917f8be0079c531659141344cd1fd0a4f28419497f9722a3daafe3b4186f6b6457e0908290a350600180546001600160a01b0319166001600160a01b03929092169190911790556100b2565b3390565b6104f6806100c16000396000f3fe608060405234801561001057600080fd5b50600436106100575760003560e01c8063482879aa1461005c578063715018a6146100805780638da5cb5b1461008a578063b61b6ce214610092578063f2fde38b146100e0575b600080fd5b610064610106565b604080516001600160a01b039092168252519081900360200190f35b610088610115565b005b6100646101d3565b6100ce600480360360808110156100a857600080fd5b506001600160a01b038135811691602081013590911690604081013590606001356101e2565b60408051918252519081900360200190f35b610088600480360360208110156100f657600080fd5b50356001600160a01b0316610382565b6001546001600160a01b031681565b61011d610496565b6001600160a01b031661012e6101d3565b6001600160a01b031614610189576040805162461bcd60e51b815260206004820181905260248201527f4f776e61626c653a2063616c6c6572206973206e6f7420746865206f776e6572604482015290519081900360640190fd5b600080546040516001600160a01b03909116907f8be0079c531659141344cd1fd0a4f28419497f9722a3daafe3b4186f6b6457e0908390a3600080546001600160a01b0319169055565b6000546001600160a01b031690565b60006101ec610496565b6001600160a01b03166101fd6101d3565b6001600160a01b031614610258576040805162461bcd60e51b815260206004820181905260248201527f4f776e61626c653a2063616c6c6572206973206e6f7420746865206f776e6572604482015290519081900360640190fd5b6001546040805163095ea7b360e01b81526001600160a01b03928316600482015260001960248201529051869283169163095ea7b39160448083019260209291908290030181600087803b1580156102af57600080fd5b505af11580156102c3573d6000803e3d6000fd5b505050506040513d60208110156102d957600080fd5b50506001546040805163660da5fb60e11b81526001600160a01b038981166004830152602482018890528881166044830152601e42818101606485015288010160848301529151919092169163cc1b4bf69160a48083019260209291908290030181600087803b15801561034c57600080fd5b505af1158015610360573d6000803e3d6000fd5b505050506040513d602081101561037657600080fd5b50519695505050505050565b61038a610496565b6001600160a01b031661039b6101d3565b6001600160a01b0316146103f6576040805162461bcd60e51b815260206004820181905260248201527f4f776e61626c653a2063616c6c6572206973206e6f7420746865206f776e6572604482015290519081900360640190fd5b6001600160a01b03811661043b5760405162461bcd60e51b815260040180806020018281038252602681526020018061049b6026913960400191505060405180910390fd5b600080546040516001600160a01b03808516939216917f8be0079c531659141344cd1fd0a4f28419497f9722a3daafe3b4186f6b6457e091a3600080546001600160a01b0319166001600160a01b0392909216919091179055565b339056fe4f776e61626c653a206e6577206f776e657220697320746865207a65726f2061646472657373a26469706673582212206fb9584840efd3005b21c206137a8cfad29ad28fea794c43eb4445b1f71a008f64736f6c634300060c0033",
  "devdoc": {
    "kind": "dev",
    "methods": {
      "owner()": {
        "details": "Returns the address of the current owner."
      },
      "renounceOwnership()": {
        "details": "Leaves the contract without owner. It will not be possible to call `onlyOwner` functions anymore. Can only be called by the current owner. NOTE: Renouncing ownership will leave the contract without an owner, thereby removing any functionality that is only available to the owner."
      },
      "transferOwnership(address)": {
        "details": "Transfers ownership of the contract to a new account (`newOwner`). Can only be called by the current owner."
      }
    },
    "version": 1
  },
  "userdoc": {
    "kind": "user",
    "methods": {},
    "version": 1
  },
  "storageLayout": {
    "storage": [
      {
        "astId": 7,
        "contract": "contracts/SafeVesting.sol:SafeVesting",
        "label": "_owner",
        "offset": 0,
        "slot": "0",
        "type": "t_address"
      },
      {
        "astId": 1702,
        "contract": "contracts/SafeVesting.sol:SafeVesting",
        "label": "sablier",
        "offset": 0,
        "slot": "1",
        "type": "t_contract(ISablier)1872"
      }
    ],
    "types": {
      "t_address": {
        "encoding": "inplace",
        "label": "address",
        "numberOfBytes": "20"
      },
      "t_contract(ISablier)1872": {
        "encoding": "inplace",
        "label": "contract ISablier",
        "numberOfBytes": "20"
      }
    }
  }
}