{
  "address": "0x5adBCC69084B85791E4cE030419F65D6D7f4a578",
  "abi": [
    {
      "inputs": [
        {
          "internalType": "uint256",
          "name": "_reservedAmount",
          "type": "uint256"
        },
        {
          "internalType": "address",
          "name": "_domain",
          "type": "address"
        },
        {
          "internalType": "address",
          "name": "_domainbar",
          "type": "address"
        },
        {
          "internalType": "address",
          "name": "_mist",
          "type": "address"
        },
        {
          "internalType": "address",
          "name": "_mistbar",
          "type": "address"
        },
        {
          "internalType": "address payable",
          "name": "_router",
          "type": "address"
        }
      ],
      "stateMutability": "nonpayable",
      "type": "constructor"
    },
    {
      "inputs": [],
      "name": "convert",
      "outputs": [],
      "stateMutability": "nonpayable",
      "type": "function"
    },
    {
      "inputs": [],
      "name": "domain",
      "outputs": [
        {
          "internalType": "contract IERC20",
          "name": "",
          "type": "address"
        }
      ],
      "stateMutability": "view",
      "type": "function"
    },
    {
      "inputs": [],
      "name": "domainbar",
      "outputs": [
        {
          "internalType": "contract DomainBar",
          "name": "",
          "type": "address"
        }
      ],
      "stateMutability": "view",
      "type": "function"
    },
    {
      "inputs": [],
      "name": "mist",
      "outputs": [
        {
          "internalType": "address",
          "name": "",
          "type": "address"
        }
      ],
      "stateMutability": "view",
      "type": "function"
    },
    {
      "inputs": [],
      "name": "mistbar",
      "outputs": [
        {
          "internalType": "address",
          "name": "",
          "type": "address"
        }
      ],
      "stateMutability": "view",
      "type": "function"
    },
    {
      "inputs": [],
      "name": "reservedAmount",
      "outputs": [
        {
          "internalType": "uint256",
          "name": "",
          "type": "uint256"
        }
      ],
      "stateMutability": "view",
      "type": "function"
    },
    {
      "inputs": [],
      "name": "router",
      "outputs": [
        {
          "internalType": "contract UniswapV2Router02",
          "name": "",
          "type": "address"
        }
      ],
      "stateMutability": "view",
      "type": "function"
    },
    {
      "inputs": [],
      "name": "stakeDomain",
      "outputs": [],
      "stateMutability": "nonpayable",
      "type": "function"
    }
  ],
  "transactionHash": "0x97037c51f0b7f771d1738d6c08a00a7d138a5d530f61ee42e01fbfc08fbc36fc",
  "args": [
    "350000000000000000000000",
    "0x35b3Ee79E1A7775cE0c11Bd8cd416630E07B0d6f",
    "0xBE7E034c86AC2a302f69ef3975e3D14820cC7660",
    "0x5fA664f69c2A4A3ec94FaC3cBf7049BD9CA73129",
    "0xC41C680c60309d4646379eD62020c534eB67b6f4",
    "0x5d0bF8d8c8b054080E2131D8b260a5c6959411B8"
  ],
  "solcInputHash": "4c4f2de42648b669a2b1588e64fc9b24",
  "bytecode": "0x608060405234801561001057600080fd5b5060405161094e38038061094e833981810160405260c081101561003357600080fd5b5080516020808301516040808501516060860151608087015160a0909701516000878155600180546001600160a01b03199081166001600160a01b03808a1691909117928390556002805483168289161790819055600380548416838916179055600480548416838f161781556005805490941683881617909355885163095ea7b360e01b81529082169281019290925260001960248301529651999a979995989497969395919093169363095ea7b393604480820194929392918390030190829087803b15801561010457600080fd5b505af1158015610118573d6000803e3d6000fd5b505050506040513d602081101561012e57600080fd5b50506001546005546040805163095ea7b360e01b81526001600160a01b03928316600482015260001960248201529051919092169163095ea7b39160448083019260209291908290030181600087803b15801561018a57600080fd5b505af115801561019e573d6000803e3d6000fd5b505050506040513d60208110156101b457600080fd5b5050505050505050610783806101cb6000396000f3fe608060405234801561001057600080fd5b50600436106100875760003560e01c80639bfb0e401161005b5780639bfb0e40146100ca578063c2fb26a6146100d2578063f887ea40146100da578063f92c45b7146100e257610087565b8062d7f84c1461008c5780630cc8c8b6146100b05780637d54e5ba146100ba57806391bbdcc7146100c2575b600080fd5b6100946100fc565b604080516001600160a01b039092168252519081900360200190f35b6100b861010b565b005b6100946101ed565b6100b86101fc565b610094610593565b6100946105a2565b6100946105b1565b6100ea6105c0565b60408051918252519081900360200190f35b6003546001600160a01b031681565b600154604080516370a0823160e01b815230600482015290516000926001600160a01b0316916370a08231916024808301926020929190829003018186803b15801561015657600080fd5b505afa15801561016a573d6000803e3d6000fd5b505050506040513d602081101561018057600080fd5b505160025460408051632967cf8360e21b81526004810184905290519293506001600160a01b039091169163a59f3e0c9160248082019260009290919082900301818387803b1580156101d257600080fd5b505af11580156101e6573d6000803e3d6000fd5b5050505050565b6004546001600160a01b031681565b6102046105c6565b6000805460408051808201825260208082527f4d697374426172436f6e7665727465723a206e656761746976652064656c74618183015260015483516370a0823160e01b815230600482015293516102b795946001600160a01b03909216926370a082319260248082019391829003018186803b15801561028457600080fd5b505afa158015610298573d6000803e3d6000fd5b505050506040513d60208110156102ae57600080fd5b50519190610695565b9050600081116102f85760405162461bcd60e51b815260040180806020018281038252602181526020018061072d6021913960400191505060405180910390fd5b6040805160038082526080820190925260019160609190602082018380368337505060015482519293506001600160a01b03169183915060009061033857fe5b6001600160a01b03928316602091820292909201810191909152600554604080516315ab88c960e31b81529051919093169263ad5c4648926004808301939192829003018186803b15801561038c57600080fd5b505afa1580156103a0573d6000803e3d6000fd5b505050506040513d60208110156103b657600080fd5b50518151829060019081106103c757fe5b6001600160a01b0392831660209182029290920101526003548251911690829060029081106103f257fe5b6001600160a01b03928316602091820292909201810191909152600480546005546040516338ed173960e01b815292830188815260248401889052918516606484018190526000196084850181905260a060448601908152885160a487015288519297919693909116946338ed1739948b948b948b948b948b9493919260c490910191878101910280838360005b83811015610498578181015183820152602001610480565b505050509050019650505050505050600060405180830381600087803b1580156104c157600080fd5b505af11580156104d5573d6000803e3d6000fd5b505050506040513d6000823e601f3d908101601f1916820160405260208110156104fe57600080fd5b810190808051604051939291908464010000000082111561051e57600080fd5b90830190602082018581111561053357600080fd5b825186602082028301116401000000008211171561055057600080fd5b82525081516020918201928201910280838360005b8381101561057d578181015183820152602001610565565b50505050905001604052505050506101e661010b565b6002546001600160a01b031681565b6001546001600160a01b031681565b6005546001600160a01b031681565b60005481565b600254604080516370a0823160e01b815230600482015290516000926001600160a01b0316916370a08231916024808301926020929190829003018186803b15801561061157600080fd5b505afa158015610625573d6000803e3d6000fd5b505050506040513d602081101561063b57600080fd5b50519050801561069257600254604080516367dfd4c960e01b81526004810184905290516001600160a01b03909216916367dfd4c99160248082019260009290919082900301818387803b1580156101d257600080fd5b50565b600081848411156107245760405162461bcd60e51b81526004018080602001828103825283818151815260200191508051906020019080838360005b838110156106e95781810151838201526020016106d1565b50505050905090810190601f1680156107165780820380516001836020036101000a031916815260200191505b509250505060405180910390fd5b50505090039056fe4d697374426172436f6e7665727465723a206d696e696d756d2062616c616e6365a2646970667358221220e064a11d28352841bebf17ebe81bb2cd8be406f0276b74de31359485fffc1d9b64736f6c634300060c0033",
  "devdoc": {
    "kind": "dev",
    "methods": {},
    "version": 1
  },
  "userdoc": {
    "kind": "user",
    "methods": {},
    "version": 1
  },
  "storageLayout": {
    "storage": [
      {
        "astId": 2008,
        "contract": "contracts/MistBarConverter.sol:MistBarConverter",
        "label": "reservedAmount",
        "offset": 0,
        "slot": "0",
        "type": "t_uint256"
      },
      {
        "astId": 2010,
        "contract": "contracts/MistBarConverter.sol:MistBarConverter",
        "label": "domain",
        "offset": 0,
        "slot": "1",
        "type": "t_contract(IERC20)1045"
      },
      {
        "astId": 2012,
        "contract": "contracts/MistBarConverter.sol:MistBarConverter",
        "label": "domainbar",
        "offset": 0,
        "slot": "2",
        "type": "t_contract(DomainBar)1748"
      },
      {
        "astId": 2014,
        "contract": "contracts/MistBarConverter.sol:MistBarConverter",
        "label": "mist",
        "offset": 0,
        "slot": "3",
        "type": "t_address"
      },
      {
        "astId": 2016,
        "contract": "contracts/MistBarConverter.sol:MistBarConverter",
        "label": "mistbar",
        "offset": 0,
        "slot": "4",
        "type": "t_address"
      },
      {
        "astId": 2018,
        "contract": "contracts/MistBarConverter.sol:MistBarConverter",
        "label": "router",
        "offset": 0,
        "slot": "5",
        "type": "t_contract(UniswapV2Router02)7262"
      }
    ],
    "types": {
      "t_address": {
        "encoding": "inplace",
        "label": "address",
        "numberOfBytes": "20"
      },
      "t_contract(DomainBar)1748": {
        "encoding": "inplace",
        "label": "contract DomainBar",
        "numberOfBytes": "20"
      },
      "t_contract(IERC20)1045": {
        "encoding": "inplace",
        "label": "contract IERC20",
        "numberOfBytes": "20"
      },
      "t_contract(UniswapV2Router02)7262": {
        "encoding": "inplace",
        "label": "contract UniswapV2Router02",
        "numberOfBytes": "20"
      },
      "t_uint256": {
        "encoding": "inplace",
        "label": "uint256",
        "numberOfBytes": "32"
      }
    }
  }
}